:02000000422894
:0E0006008312031322088A00210882000800DA
:10001400831603139816903083129800831687175B
:10002400071383128C1E19281A08F00013280800DD
:0E0034000030831203138C1A0130F000080014
:10004200831203131A08F100981C29281812181693
:060052007108F000080037
:10005800831603139818322800002C2883122308CB
:0400680099000800F3
:10006C0003208A110A128000840AA10A0319A20A29
:08007C00F003031D3628080003
:1000840083160313860183128601831607138717C9
:100094008312870119308316990018150A208230BB
:1000A400FC00DD30FD00FD0B5528FC0B552800003D
:1000B40000001A2070080319652821207008A00088
:1000C4007008A3002C202008313A031D6B288614E5
:1000D40094282008613A031D71288610942820086A
:1000E400323A031D7728061594282008623A031D26
:1000F4007D28061194282008333A031D8328061608
:1001040094282008633A031D89280612942820089D
:10011400343A031D8F28861694282008643A031D58
:08012400942886124C2895284E
:02400E004A2F37
:00000001FF
